S00D000054696D65722E7372656316
S11300000C942A000C9429010C9455010C94810140
S11300100C94EB020C94C2020C9499020C9470029E
S11300200C9447020C941E020C94F5010C94CC0120
S11300300C943C000C943C000C943C000C943C004C
S11300400C943C000C943C000C943C000C943C003C
S11300500C943C0011241FBECFE5D8E0DEBFCDBF19
S113006020E0A0E6B0E001C01D92A638B207E1F797
S11300700E94AD010C9414030C9400004130A1F5CE
S1130080813089F028F08230C9F0833011F108956D
S11300902AB381E090E002C0880F991F6A95E2F7C5
S11300A0822B8ABB089527B381E090E002C0880FB9
S11300B0991F6A95E2F7822B87BB089524B381E0E8
S11300C090E002C0880F991F6A95E2F7822B84BBE7
S11300D0089521B381E090E002C0880F991F6A95CA
S11300E0E2F7822B81BB0895411137C0813091F032
S11300F028F08230D9F0833029F108952AB381E0C1
S113010090E002C0880F991F6A95E2F780958223D8
S11301108ABB089527B381E090E002C0880F991F3D
S11301206A95E2F78095822387BB089524B381E022
S113013090E002C0880F991F6A95E2F780958223A8
S113014084BB089521B381E090E002C0880F991F19
S11301506A95E2F78095822381BB08954130A1F529
S1130160813089F028F08230C9F0833011F108958C
S11301702BB381E090E002C0880F991F6A95E2F7E3
S1130180822B8BBB089528B381E090E002C0880FD6
S1130190991F6A95E2F7822B88BB089525B381E005
S11301A090E002C0880F991F6A95E2F7822B85BB05
S11301B0089522B381E090E002C0880F991F6A95E8
S11301C0E2F7822B82BB0895411137C0813091F050
S11301D028F08230D9F0833029F108952BB381E0DF
S11301E090E002C0880F991F6A95E2F780958223F8
S11301F08BBB089528B381E090E002C0880F991F5B
S11302006A95E2F78095822388BB089525B381E03F
S113021090E002C0880F991F6A95E2F780958223C7
S113022085BB089522B381E090E002C0880F991F36
S11302306A95E2F78095822382BB08959AB721E0FC
S113024030E002C0220F331F8A95E2F7292B2ABF20
S113025008951F920F920FB60F9211242F933F937C
S11302604F935F936F937F938F939F93AF93BF93BA
S1130270EF93FF93E0916000F0916100309721F0DB
S1130280099586E00E941E01FF91EF91BF91AF9105
S11302909F918F917F916F915F914F913F912F919A
S11302A00F900FBE0F901F9018951F920F920FB6CC
S11302B00F9211242F933F934F935F936F937F93E8
S11302C08F939F93AF93BF93EF93FF93E09162005B
S11302D0F0916300309721F0099587E00E941E0198
S11302E0FF91EF91BF91AF919F918F917F916F910A
S11302F05F914F913F912F910F900FBE0F901F90E0
S113030018951F920F920FB60F9211242F933F93BB
S11303104F935F936F937F938F939F93AF93BF9309
S1130320EF93FF93E0916400F0916500309721F022
S1130330099585E00E941E01FF91EF91BF91AF9155
S11303409F918F917F916F915F914F913F912F91E9
S11303500F900FBE0F901F9018950E94BA0141E0B4
S113036060E080E00E943E0041E060E080E00E94A6
S1130370AE00FACF83B78F7B83BF83B7877F83BFFA
S113038080EC82BF89B7816089BF83B7887F83BFD0
S113039083B7826083BF08951F920F920FB60F92A6
S11303A011242F933F934F935F936F937F938F9376
S11303B09F93AF93BF93EF93FF93E0917C00F091F1
S11303C07D00309709F00995FF91EF91BF91AF91AE
S11303D09F918F917F916F915F914F913F912F9159
S11303E00F900FBE0F901F9018951F920F920FB68B
S11303F00F9211242F933F934F935F936F937F93A7
S11304008F939F93AF93BF93EF93FF93E0917A0001
S1130410F0917B00309709F00995FF91EF91BF911E
S1130420AF919F918F917F916F915F914F913F9188
S11304302F910F900FBE0F901F9018951F920F923F
S11304400FB60F9211242F933F934F935F936F93A3
S11304507F938F939F93AF93BF93EF93FF93E09119
S11304607800F0917900309709F00995FF91EF91A8
S1130470BF91AF919F918F917F916F915F914F91B8
S11304803F912F910F900FBE0F901F9018951F92C0
S11304900F920FB60F9211242F933F934F935F93B4
S11304A06F937F938F939F93AF93BF93EF93FF9338
S11304B0E0917600F0917700309709F00995FF916B
S11304C0EF91BF91AF919F918F917F916F915F91C8
S11304D04F913F912F910F900FBE0F901F90189541
S11304E01F920F920FB60F9211242F933F934F93A5
S11304F05F936F937F938F939F93AF93BF93EF9388
S1130500FF93E0917400F0917500309709F009951C
S1130510FF91EF91BF91AF919F918F917F916F91D7
S11305205F914F913F912F910F900FBE0F901F90AD
S113053018951F920F920FB60F9211242F933F9389
S11305404F935F936F937F938F939F93AF93BF93D7
S1130550EF93FF93E0917200F0917300309709F0EC
S11305600995FF91EF91BF91AF919F918F917F91E9
S11305706F915F914F913F912F910F900FBE0F900C
S11305801F9018951F920F920FB60F9211242F935C
S11305903F934F935F936F937F938F939F93AF9307
S11305A0BF93EF93FF93E0917000F0917100309747
S11305B009F00995FF91EF91BF91AF919F918F91B0
S11305C07F916F915F914F913F912F910F900FBE4B
S11305D00F901F9018951F920F920FB60F9211242F
S11305E02F933F934F935F936F937F938F939F9337
S11305F0AF93BF93EF93FF93E0916E00F0916F0080
S1130600309709F00995FF91EF91BF91AF919F91B8
S11306108F917F916F915F914F913F912F910F90A7
S10F06200FBE0F901F901895F894FFCFA8
S9030000FC
